:1000000079C09DC0E2C29BC09AC069C298C097C027
:1000100096C095C094C093C092C091C090C000009B
:10002000000037000000000038000000000036002B
:10003000020202020202020202020102040810206D
:100040002004100801020000040000000000090262
:100050006500020100803209040000000101000077
:100060000924010001090001010904010002010342
:1000700000000724010001410006240201010006DE
:1000800024020202000924030103010201000924E1
:10009000030204010101000905010308000A000030
:1000A00005250101010905810308000A0000052555
:1000B0000101031201100100000008C016E405014F
:1000C0000001020001120375007300620032006D2E
:1000D00000690064006900140367006F0079006321
:1000E000006F002E006E0065007400040309040018
:1000F0004406770611241FBECFE5D2E0DEBFCDBF98
:1001000010E0A0E6B0E0ECE1FDE002C005900D9249
:10011000A437B107D9F720E0A4E7B0E001C01D92F1
:10012000A43FB207E1F710E0C9E7D0E003C0219790
:10013000FE01DED5C837D107D1F76BD3E3C560CF59
:10014000CF92DF92EF92FF920F931F93CF93DF93A3
:100150006C017A018B01C0E0D0E0CE15DF0589F09B
:10016000D8016D918D01D601ED91FC910190F08146
:10017000E02DC6010995892B11F47E0102C021965C
:10018000ECCFC701DF91CF911F910F91FF90EF90BE
:10019000DF90CF900895823081F018F4813051F0D3
:1001A0000895833019F0843009F008958CB58F7D5F
:1001B0008CBD08958AB58F7702C08AB58F7D8ABDC0
:1001C00008951F93CF93DF93282F30E0F901EC5B64
:1001D000FF4F8491F901E65CFF4FD491F901E05D96
:1001E000FF4FC491CC23C1F0162F8111D4DFEC2F27
:1001F000F0E0EE0FFF1FEC5DFF4FA591B4918FB7BC
:10020000F894111105C09C91ED2FE095E92302C0EF
:10021000EC91ED2BEC938FBFDF91CF911F9108955F
:10022000CF93DF9390E0FC01E65CFF4F2491FC014B
:10023000E05DFF4F8491882361F190E0880F991F62
:10024000FC01E25EFF4FC591D491FC01EC5DFF4FD4
:10025000A591B491611109C09FB7F8948881209548
:1002600082238883EC912E230BC0623061F49FB708
:10027000F8943881822F809583238883EC912E2BEC
:100280002C939FBF06C08FB7F894E8812E2B28834C
:100290008FBFDF91CF910895089580E090E0089599
:1002A00080E090E0089580E090E008951F93CF9360
:1002B000DF93DC0152962D913C9153972115310526
:1002C00039F481E090E013969C938E9312973CC092
:1002D0001D96ED91FC911E971C969C911C97892F61
:1002E00080951FB754964C915497742F717040FDB0
:1002F0006095F8944081772311F0492B01C0482381
:100300004083E9012197F1F748E0508160FF02C086
:10031000592B01C058235083E9012197F1F76695C5
:10032000415099F7772321F090818923808303C07E
:100330008081982B90831FBF52968D919C915397EB
:100340000197F1F721E030E0C901DF91CF911F91D2
:1003500008950F931F93CF93DF931F92CDB7DEB70E
:10036000182F062F60E084E049832BDF612F60683F
:100370008DE790E09BDF602F8DE790E097DF49816C
:10038000642F8DE790E00F90DF91CF911F910F9137
:100390008DCF0F931F93CF93DF931F92CDB7DEB70F
:1003A000182F062F61E084E049830BDF612F60691D
:1003B0008DE790E07BDF602F8DE790E077DF49816C
:1003C000642F8DE790E00F90DF91CF911F910F91F7
:1003D0006DCF1F93CF93DF931F92CDB7DEB7162F4C
:1003E000682F606B8DE790E0498360DF612F8DE7B8
:1003F00090E05CDF4981642F8DE790E00F90DF9102
:10040000CF911F9153CF089580E090E00895DC01D3
:10041000E091B200F0E09F012C5F3F4F2F71332736
:100420008091B3008217C1F08C91EE56FF4F80830C
:1004300011968C911197818312968C9112978283D9
:1004400013968C9183832093B2008091BA008F5FC2
:100450008093BA0081E0089580E008954FD4DF9240
:10046000EF92FF920F931F93CF93DF9308E010E07A
:10047000C0E0D0E8DC2EDD0ED1BE94D07C018CEE45
:10048000E81688E0F8060CF4CD2DD6950150110938
:1004900089F78FEF8C0F81BF0C2F10E00F5F1F4F7C
:1004A00021B730E0021713078CF07CD08C5E9840A7
:1004B00097FF03C09195819591098E159F0514F4BE
:1004C000C1B77C0181B78F5F81BFEACFC1BFDF9128
:1004D000CF911F910F91FF90EF90DF9008951F92A1
:1004E0000F920FB60F9211242F933F938F939F93E8
:1004F000AF93BF938091790090917A00A0917B0097
:10050000B0917C003091780023E0230F2D3720F448
:100510000196A11DB11D05C026E8230F0296A11D5D
:10052000B11D209378008093790090937A00A09376
:100530007B00B0937C008091740090917500A09135
:100540007600B09177000196A11DB11D80937400D3
:1005500090937500A0937600B0937700BF91AF9110
:100560009F918F913F912F910F900FBE0F901F90F1
:100570001895A82FB92F80E090E041E050EA6095EF
:1005800030E009C02D9182279795879510F0842738
:100590009527305EC8F36F5FA8F30895EADF8D9367
:1005A0009D930895A6E088279927AA9569F0019759
:1005B000E1F3B199FCCFB19BFECF81E09927A6B3BF
:1005C000019611F0A670D9F70895CF93CFB7CF93C6
:1005D000DF93C395B19BE9F7B19B0BC0B19B09C0F9
:1005E000B19B07C0B19B05C0B19B03C0B19B01C0CB
:1005F0008EC06F93C091DA00DD27C252DF4F2F9378
:1006000065E5B19B03C02F916F91E6CF0F931F93C8
:100610004F9320E040E15F9306B3067001FB27F99A
:100620003F9350E03BE039C0167040642F77012FB4
:100630005F5F1EC0406816B316702F7752501FC000
:10064000406406B32F770670D1F15F5F00C023C00E
:10065000406216B32F77167091F15F5F00C025C01E
:1006600006701027515012F45D5F0000115027955D
:100670002C3F16B3C8F616700127015027952C3F62
:10068000C8F64227499306B3067010274F731150DE
:1006900027952C3FA8F64695469516B3167079F027
:1006A0000127015027952C3F98F66B5A60F3315083
:1006B00006B3B0F600C010E21ABF00271CC03B50C2
:1006C0003195C31BD04010E21ABF0881033C21F1D1
:1006D0000B3411F12091D8001981110F1213EDCFB5
:1006E0004A81441F093669F10D3211F0013E29F7A4
:1006F0004F7009F0042F0093DD003F915F914F91FF
:100700001F910F912F916F91CAB7C5FD62CFDF91F5
:10071000CF91CFBFCF9118952091DD00222369F3AF
:100720001091DB00112391F5343092F13093DB000E
:100730002093D9001091DA003BE0311B3093DA00AE
:1007400027C00091DB0001300CF50AE54F7049F439
:100750003091610034FD1DC000936100C1ECD0E018
:100760001CC03091CC0034FD14C00093CC00CDEC03
:10077000D0E013C0052710E000C0000008BB1AC07D
:10078000052710E0221F1DC010E021C04AE502C06D
:1007900032ED432FC4E1D0E032E017B31660C19AC6
:1007A00008B317BB56E020E865E320FF052708BB28
:1007B000279517951C3FF0F66695B8F7B1F720FF1F
:1007C000052708BB279517951C3FD0F62795179549
:1007D00017FF052700001C3F08BBB0F629913A958A
:1007E00019F7097F1091DC00110FC651D04008BBEA
:1007F00011F01093D80010E21ABF026017B3197FEE
:10080000402F497F54E05A95F1F708BB17BB48BB0E
:1008100074CFCF93DF9300D01F92CDB7DEB778941B
:100820008AB582608ABD8AB581608ABD83B78260DD
:1008300083BF83B7816083BF89B7826089BF80B778
:10084000826080BF80B7816080BF329A319A309ACF
:10085000379A8CB580648CBD62E083E0E1DC61E0B6
:1008600084E0DEDC9FE088E10FB6F894A89581BDB6
:100870000FBE91BD8DE790E09093900080938F0024
:10088000E7E4F0E08491EDE3F0E01491E3E3F0E0DD
:100890000491002309F4E4C181117DDCE02FF0E034
:1008A000EE0FFF1FE65DFF4FA591B491EC91E123A0
:1008B00009F4D6C1F894D3DDA99A8BB780628BBFB7
:1008C0008BE48093CD008AE58093CC00B99A8BEFBE
:1008D00090E02BE93FE0019721F0F9013197F1F722
:1008E000FACFB9981092B9001092B8001092B700E0
:1008F0001092B6001092B5001092B4001092B3009E
:100900001092B200789489EA91E09093B9008093B4
:10091000B80089EC91E09093B7008093B60089EE1F
:1009200091E09093B5008093B4002CE0E22EF12C7E
:100930003EE4C32E30E0D32E45ECA42E40E0B42E8E
:1009400057ED852E50E0952E6BEE662E60E0762EEC
:1009500083EC282E3324339493EB492E90E0592EC8
:1009600000E010E0A8952091BA002223B9F180910F
:10097000B3009091B200891769F090E0DC01AE56A7
:10098000BF4F04968F7199278093B3002150209315
:10099000BA0002C0A0E0B0E011968C911197982F98
:1009A000907F903931F413964C91139741115FC1A8
:1009B00006C0903821F0903B09F461C10FC0E0916E
:1009C000B800F091B900309749F013964C91139705
:1009D0004F7712966C916F778F7009954091DB007D
:1009E000435047FDCCC08091DA009701281B3109A4
:1009F00022523F4F8091D900803180F4F894C90190
:100A000029833A834B8303DD4B8129813A81453029
:100A100018F0C9010496FBDC7894AFC08D3209F060
:100A2000ACC0483009F0A9C02092C1008AE580938B
:100A300061001092BD00F9014081842F807641F061
:100A4000803209F08FC047FD8DC03092BB008AC054
:100A5000F901928154811092CA008181811113C0E1
:100A60004F71423051F4513841F49091CC0081E003
:100A70009E3109F080E08093CA001092CB004AECCE
:100A800050E082E06AC0482F4D7F413081F49111DF
:100A900061C0513809F05EC0813011F08EE101C0B3
:100AA0008AE58093CC008BE48093CD0053C08530E1
:100AB00019F49093DC004EC0863081F5F9018381F2
:100AC000813029F45092BF004092BE0020C0823095
:100AD00031F4D092BF00C092BE0085E61BC08330C7
:100AE000C1F4911106C07092BF006092BE0084E014
:100AF00011C0913031F49092BF008092BE0084E129
:100B000009C0923031F4B092BF00A092BE0082E1E1
:100B100001C080E090E49093BD0025C0883099F03A
:100B2000893031F49093BC00FAE5F093CC0012C008
:100B30008A3061F08B3071F48BE48093CD008AE5CC
:100B40008093CC0007C04CEB50E002C04AEC50E070
:100B500081E003C04AEC50E080E05093BF00409336
:100B6000BE0001C08FEFF9019781911104C09681F9
:100B7000981708F4892F809360001092DB00809111
:100B8000610084FF4AC0809160008F3F09F445C036
:100B9000482F893008F048E0841B809360009091D2
:100BA000C10088E889278093C100442339F18091EE
:100BB000BE009091BF002091BD0026FF0BC0A2ECAB
:100BC000B0E0FC01242F280F34913D9331962E1371
:100BD000FBCF09C0DC01E2ECF0E0242F2E0F3D91A9
:100BE00031932E13FCCF2FEF240F30E02F5F3F4FB8
:100BF000820F931F9093BF008093BE00642F82ECFE
:100C000090E04B83CBDC4B8194E0940F9C3019F047
:100C10008FEF809360009093610084E196B39670AB
:100C200049F48150D9F71092DC001092D800FAE50F
:100C3000F093CC0091E0811190E08091C000891781
:100C400049F0911105C0F894998309DC7894998151
:100C50009093C0000115110509F484CED1D978CE46
:100C600082E490E09093900080938F0023CEE091F7
:100C7000B600F091B700309709F0AACEAFCEE09160
:100C8000B400F091B5009FCECF93DF93CDE7D0E0D5
:100C90001B821A8288EE93E0A0E0B0E08C839D83F3
:100CA000AE83BF8386E690E0998388831B8A1A8A85
:100CB000E1E9F0E060816E7F60836095617080E0C3
:100CC00080DA61E080E0ACDAEAE3F0E0E491EC871E
:100CD000E0E3F0E0E491F0E0EE0FFF1FEC5DFF4F8A
:100CE000859194919E878D87DF91CF910895089586
:100CF000EE0FFF1F0590F491E02D099481E090E044
:100D0000F89400C010E0C9E7D0E003C0FE01F0DFB6
:0C0D10002196CA37D107D1F7F894FFCF25
:100D1C00FF5A000000005601A00004024C015301D0
:040D2C004D01500124
:00000001FF
